:10000000743811C8740E11C8740111C8740611C86F
:10001000748011C8900500E49311D6A36002011703
:1000200074C011C8745211D6744F11D6744C11D6C5
:10003000744C11D6742E11D6744E11D6744F11D63D
:10004000742E11D6743A11D674CA11C87C0075800A
:10005000FF759000E580540FB40FF611E4E580546D
:100060000FB40F0280F511E4E580540FB40F028045
:10007000EA7590FEE580540FB40F217590FDE58080
:10008000540FB40F1C7590FBE580540FB40F177517
:1000900090F7E580540FB40F1202005B90050B80BF
:1000A0000D90050F800890051380039005171350DD
:1000B00003A380FAE493FD11C40CBC0594740111F0
:1000C000C8020008ED11D62211E4F5B0C2A0C2A109
:1000D000D2A200C2A22211E4F5B0D2A0C2A1D2A243
:0E00E00000C2A2227A0F7BF000DBFDDAF922CB
:1005000020525554555041524E2000303132333430
:0B051000353637383941424344454638
:00000001FF
