:10030000280E01068400527574757061726E003398
:06031000313230353200ED
:10000000900300E493112AA3600280F7900306E4B2
:1000100093114AA3600280F774C0112A90030FE481
:1000200093114AA3600280F780FEF954F0C4F58072
:10003000C290C291D29200C292F9540FF580C29040
:10004000C291D29200C292116A22F954F0C4F58092
:10005000D290C291D29200C292F9540FF580D29000
:10006000C291D29200C292116A22758901758CFAEE
:0D007000758A19D28C308DFDC28DC28C2294
:00000001FF
